:020000040800F2
:10000000F8040020D5000008350F00083507000867
:1000100000000000000000000000000000000000E0
:100020000000000000000000000000007F11000838
:1000300000000000000000007D110008E51100082C
:10004000E7000008E7000008E7000008E7000008F4
:10005000E7000008E7000008E7000008E7000008E4
:1000600000000000E7000008E700000800000000B2
:10007000E7000008E7000008E700000800000000B3
:10008000E7000008E700000800000000E7000008A3
:100090000000000019120008E7000008E70000084F
:1000A00000000000E7000008E7000008E700000883
:1000B000E700000800000000E70000080000000062
:1000C0000348854600F0BEFA004800478D06000848
:1000D000F80400200448804704480047FEE7FEE794
:1000E000FEE7FEE7FEE7FEE7E9110008C1000008B1
:1000F000024670B54A40D30FDB0740002DD04A00BE
:100100002AD0010E140E000212020919400A520AE6
:100110008418E50104465443000A120A2E04504391
:10012000A4194219200CC543AA18120C0125AD03CD
:10013000521C521912047F39240400D0521C10435F
:1001400001D44000491EC2B20C06C0092018401C50
:100150004008802A02D003E0002070BD4008400023
:10016000002900DA0020184370BD70B502464A40ED
:10017000D50F40004A00ED0740085208002814D06F
:10018000002A12D0C40DD30D41020120C005520235
:10019000490A520AE41A091812187D34914201D30F
:1001A000641C00E04900002C01DA002070BD00232F
:1001B000914201D3891A0343400849000028F7D12E
:1001C00000290AD0914202D10121C90705E09142DC
:1001D00001D2012101E00121C943E005C018401905
:1001E00000F08FF970BD0000F0B507460846584092
:1001F00087B0C00F049048000E46590040084908D7
:10020000BC1A884105D2384631461E4617460B4671
:1002100002465800400810434CD0300D0390400572
:100220005900400D490D0590401A0290402872DA9D
:1002300018030121000B090508430190049800925E
:10024000002805D001995242002088410092019077
:10025000029840210A1A0199009800F02FF90546EA
:100260000C466B4607CB00F039F9C0197141039A6F
:100270000E0D0023D71756401A467A40164344D035
:10028000049A002A2DD0029A012A039A15DC12053D
:10029000C01A914101263605001C7141D20F059EFE
:1002A000D2070093019202962A46234600F077F97E
:1002B00007B0F0BD38463146FAE71605224A0F4628
:1002C000B218C01AB74101210905001C4F4100189E
:1002D0007F41114618187941E20F10436D196441AE
:1002E00013E0E2076D0815436408C2071443039A3C
:1002F00001261205C01A91413605001C7141CE0736
:10030000400830434908C01851412A46234600F0AE
:1003100039F9CDE7FFE7049801224000C117121A0E
:1003200000238B4104983146C417381AA141EEE7E7
:1003300030B40124E407634030BC55E730B40124F5
:10034000E407614030BC4FE70000E0FF0122D20724
:10035000002800DB101A002900DB511A814201D36A
:1003600001207047002070470122D207002800DBDF
:10037000101A002900DB511A814201D9012070476F
:1003800000207047C217C10F504010B54018CA076F
:100390009623002100F0BDF810BDC20F41004002BD
:1003A0000123400ADB05D207090EC0187F2901DAB4
:1003B00000207047962903DC9623591AC84001E0B3
:1003C00096398840002AF4D040427047C20FD207C5
:1003D000400040080BD0C10D0723DB01C9184002C3
:1003E0000905400A1143C208400711437047002025
:1003F00001467047CB0FDB07490010B5490802469C
:100400000A4307D00A0D07240903E401090B121B54
:10041000002A01DC002010BDC900440F0C43C100BC
:10042000E018D205801800F06CF810BD70B50446D5
:10043000002903D000202022012310E0002801D051
:100440000020C043C046C0460DE02546D5408D4241
:1004500005D30D469540641B1D4695404019154631
:10046000521E002DF1DC214670BD000070B5002544
:1004700004462E46002911D0002C01DA0125444201
:10048000002901DA012649422046FFF7CFFFB54295
:1004900000D04042002D00D0494270BD002C02DA4D
:1004A0000121C90702E0002C00DD03490846C046CF
:1004B000C046214670BD0000FFFFFF7F10B5202A17
:1004C00004DB0146203A9140002010BD91402023DA
:1004D0009C1A0346E3401943904010BD10B5202AF2
:1004E00006DBCB170846203A1041C1170B4306E044
:1004F0000B461341D0402024A21A914008431946CC
:1005000010BD002904DA401C490001D14008400018
:10051000704770B40024050C05D11024000402D1EA
:10052000002921D01124050E01D100020834050F45
:1005300001D10001241D850F01D18000A41C0028D9
:1005400001DB4000641C002908D020252E1B0D462D
:10055000F540A14000D001212943084301061B1B9F
:10056000000ADB1D02D5002070BC7047DB0518189F
:1005700080180029F8DA401C4900F5D170BC400809
:100580004000704710B5002B08DA0024401C614180
:1005900092185B411A4301D14008400010BDF0B5EC
:1005A0001FB482B005460C0003D0084601F030F9B4
:1005B00002E001F02DF92030024600902146284645
:1005C000FFF77CFF049B059A04460F46184311432E
:1005D000084314D0184610431BD0009840210A1A33
:1005E0001846059900F040F805460E46009A059910
:1005F0000498FFF763FF084305D0012004E020467C
:10060000394607B0F0BD0020C11705430E432C4307
:10061000374300990E986305401A7905E40A0022D1
:100620000C43FD0A0A3002D500200146E9E7010526
:10063000101969410C9C0D9D00196941FFF7A2FF3B
:10064000DFE70000064C0125064E05E0E36807CC15
:100650002B430C3C98471034B442F7D3FFF734FDDA
:10066000BC180008DC18000810B5202A04DB084676
:10067000203AD040002110BD0B46D340D04020246A
:10068000A21A91400843194610BD000080B5002011
:1006900007490122D306C3580B50001DC028F8D1CA
:1006A00050070449086001F00BF8002080BDC046E7
:1006B0000000002008ED00E010B50124204600F005
:1006C0001BF9022000F018F905200007802100F036
:1006D000C3F80248214600F0BFF810BD00040050E6
:1006E00080B500F065F90F4800680F49014001200E
:1006F000C003081800F082F900F074F90128FBD15A
:100700000A4800F01FF900F0ABF900F0C9F900F059
:1007100043F91028FBD100F0B3F9054800F0ECF9DB
:1007200080BDC046100FFF1FFF1F0000E400002027
:10073000006CDC02FEE7000081B00548016802227F
:1007400011430160006810400090009801B07047AC
:100750003C10024081B00120400405490A68024370
:100760000A60096801400091009801B07047C046D6
:100770004010024006480168012008407047C0460A
:1007800003490A6801239A4302430A607047C0463E
:1007900000200240F0B581B00D46044609680029EA
:1007A0002DD0002709E06A692046314600F046F85E
:1007B0007F1C29680846F84021D00126BE400E4023
:1007C000F6D06A682046314600F057F86868401E47
:1007D000012804D8AA682046314600F07BF82A692F
:1007E0002046314600F064F868680228E0D1FF2E08
:1007F000D9D86A692046314600F016F8D8E768680B
:10080000401E012803D8EA68204600F043F8012082
:1008100001B0F0BD00690840411A484248417047A4
:100820008162704781627047494349434A430F23BD
:100830004B43016A9943114301627047090A4943D6
:1008400049434A430F234B43416A99431143416251
:100850007047042181617047494303224A4303687A
:1008600093430B430360704749434A4303234B437D
:100870000168994311430160704749434A43032388
:100880004B430168994311430160704742688A43B2
:10089000426070474A4343688B4313434360704749
:1008A000494303224A43C36893430B43C3607047E1
:1008B00049434A4303234B43C16899431143C160F1
:1008C0007047494303224A438368934349001943CD
:1008D0008160704749434A4303234B4381689943EE
:1008E00011438160704700000248016808224A40B5
:1008F000026070471400005081B011490A68024339
:100900000A60096801400091009801B07047C04634
:1009100081B00B490A6802430A60096801400091EE
:10092000009801B07047C04681B005490A6802438B
:100930000A60096801400091009801B07047C04604
:1009400034100240B0B5044600F0DAFC002501285E
:100950001ED100F03DF80F49884219D300F038F855
:100960006449884214D800F033F8450000F040F89C
:10097000012805D000F024F800F03AF80128FBD156
:10098000002000F063F82846214600F079FC054677
:100990002846B0BD0024F4004948016838200840CA
:1009A0007047C04646480168382008407047C04636
:1009B0000120000224490A6802430A607047C046C9
:1009C0000120000220490A6802430A607047C046BD
:1009D0000E480068C00A1C21014001484058704779
:1009E0009C180008184800684005C00F7047C046B2
:1009F000154800684005C00F7047C04603490A68A3
:100A0000034B134003430B607047C0460410024081
:100A10000000FFFF0320000403490A68824301200D
:100A200000041018086070471010024001200006F2
:100A300005490A6802430A607047C04602480068D8
:100A40008001C00F7047C0460010024003490A6889
:100A500001239A4302430A607047C0460C100240CB
:100A60000F20000216490A6882430A607047C04698
:100A70000F210902124A13688B4303431360704726
:100A8000072000030E490A6882430A607047C04687
:100A9000072109030A4A13688B4303431360704715
:100AA0000748016802220A4305218A430260704711
:100AB0000348016802220A4305218A430260704705
:100AC00008100240B0B50B490025884201D82C46D9
:100AD00000E001242046FFF753FEED43FFF74AFEF6
:100AE000A04203D0691C002D0D46F7D1011B4842DE
:100AF0004841B0BD00366E01014908607047C046EC
:100B0000C400002002490A6802430A607047C046D8
:100B1000200400400120C0433F4908607047C046A0
:100B2000CB4801688022914301607047704801689A
:100B300080229143016070470120C00302490A6886
:100B400002430A607047C046440400400168012225
:100B50000A430260704700000248016801220A430C
:100B6000026070470C440140416901220A4342611E
:100B70007047000070B50D46044601681F4EB04234
:100B800002D0EA48844204D1702081436868084357
:100B900000E008461A498C4208DDB4420CD01949DD
:100BA0008C4209D0AA498C4206D024E0DF498C420D
:100BB00002D015498C421ED1032109028843E968FD
:100BC00001432160A968204600F08AF82988204660
:100BD00000F092F8B44205D00A48844202D09C4802
:100BE000844203D1297C204600F088F82046FFF794
:100BF000BBFF012070BD0146E3E7C046002C014069
:100C0000FF2B0140004801400020004002480168DD
:100C1000012008407047C0461044014010B510281C
:100C200007D0402807D001210902884205D10420BD
:100C300004E0022002E0032000E0062005A1095C98
:100C4000064A8B5806A4205C082484401C438C5020
:100C500010BDC04600000000040404001804004059
:100C60000000080000000800B0B503460020FF297E
:100C700009DC012914D010291DD11846114600F0B5
:100C8000ADF90120B0BD01242502A9420ED02503F3
:100C9000A94210D11846114600F032FA2046B0BDE4
:100CA0001846114600F05CF90120B0BD1846114607
:100CB00000F0DCF92046B0BD41637047014908608F
:100CC0007047C0463804004081637047014908609E
:100CD0007047C0463C040040C163704701647047E0
:100CE000C162704702480168024A0A4002607047C8
:100CF00008440140F8BFFFFF8162704701637047FD
:100D00000248016870229143016070470444014029
:100D1000F0B581B001242046FFF706FE0220FFF760
:100D200003FE0520050720270026284639463246BF
:100D3000FFF79AFD28463946FFF7B2FD40272846BF
:100D400039463246FFF790FD28463946FFF7A8FDA1
:100D50007748082739463246FFF786FD74483946FA
:100D6000FFF79EFD284621462246FFF77DFD2846D7
:100D70002146FFF78BFD28462146FFF7A2FD2846B6
:100D80002146FFF74DFD0426284631462246FFF74F
:100D90006BFD28463146FFF779FD28463146FFF7BF
:100DA00090FD28463146FFF73BFD2846394622464E
:100DB000FFF75AFD28463946FFF768FD28463946B1
:100DC000FFF77FFD28463946FFF72AFD584D284694
:100DD00031462246FFF748FD28463146FFF756FDCB
:100DE00028463146FFF76DFD28463146FFF718FDCE
:100DF00001B0F0BD10B586B00024059404940394AE
:100E000002940194FFF706FEFFF7A4FC00F09CF8A3
:100E100000F092F801A90C742F20088004940B486C
:100E200003900294D44C2046FFF7A4FEFFF778FE0F
:100E3000FFF758FFFFF764FFFFF778FEFFF78CFE20
:100E40002046FFF783FE06B010BDC046E703000052
:100E500000440140F0B597B0FFF76EFC00251295F5
:100E600012A901240C8014951695159513952E48FA
:100E70001490119510950F950E950D950C950B9559
:100E80000A952A48FFF776FE099508950795069575
:100E9000059504952046FFF73BFD099408950795B5
:100EA000022706970597802004900520000704A9D3
:100EB0000391FFF76FFC0E950B94602002900A904F
:100EC0000D9510260AAA019218483146FFF7CCFE6C
:100ED0003046FFF7A3FE3846FFF71AFD0994089540
:100EE000079506970597049411480399FFF752FC5C
:100EF0000E950B9402980A900D9524020B4D2846EE
:100F00002146019AFFF7B0FE2046FFF787FE2846EC
:100F1000FFF71CFEFFF710FE3046FFF7F3FD2046FB
:100F2000FFF7F0FD17B0F0BD5F09000000040040BE
:100F3000000400507047000001204005014908608E
:100F40007047C04600E100E0FF20000203490A6844
:100F500082430120800310180860704714E400E009
:100F6000F0B583B004460126F043226A02402262B3
:100F70000A690240236A0327BB43134308680290AF
:100F80004D681D436368A2697948844205D0794859
:100F9000844202D07848844213D1380283437002DD
:100FA0004E6901968F69CE6987431F4373003B43A7
:100FB0000C20854301984008C00028438D68AD008F
:100FC000054363607320824302980243A261C968AB
:100FD0002046FFF771FE256203B0F0BDF0B583B087
:100FE0000446006A102290432062206A3022904317
:100FF0000A695208520102430F684B681D011543EC
:101000006368A2695A4EB44205D05A4EB44202D027
:10101000594EB44219D10326B602B343486902902F
:101020003E468F69C8690190BF000F483840374677
:101030001843019BDB000343C0208543029840080E
:10104000C00128438D68AD01054363607320000231
:10105000824338021043A061C9682046FFF734FE7E
:10106000256203B0F0BDC046FCF7FFFFF0B585B0C8
:1010700004462148FF30226A024022620320039086
:101080000002226A82430869400843021343086849
:1010900004904A6815021D436368E269344FBC42FC
:1010A00005D0344FBC4202D0334FBC4217D1039815
:1010B0000703BB434E6902968E69CF6901973701DA
:1010C0000E4E3E401E43019B5B013343800285432D
:1010D00002984008C00228438D68AD020543636052
:1010E0007320824304980243E261C9682046FFF7F7
:1010F000F3FD256205B0F0BD00FEFFFFF0DFFFFF4E
:10110000F0B583B0044601263003226A824322628E
:10111000256A636805C902928A680192E269144FE0
:101120000839BC4205D0134FBC4202D0124FBC421A
:1011300005D1B603B3438E69B6011E4300E01E46D7
:10114000666073231B029A4300021043E061C96882
:101150002046FFF7C3FD03200003854301984008A4
:1011600040032843029909030143216203B0F0BD03
:10117000002C014000480140004401407047704786
:1011800070B50C464B210E01DD49884201D23C2549
:101190000CE0DC498842354608D831463C394143A9
:1011A0000E4808180E49FFF761F985B22846FFF787
:1011B000E9F82146FEF79CFFFFF7EFF83C30FFF718
:1011C0007DFD701BFFF7DEF82146FEF791FFFFF76C
:1011D000E4F83C30FFF77AFD70BDC0469008D1FFBF
:1011E000D80E00007047000007480168074A0A400F
:1011F000074909681143012253030B430360D006DA
:10120000044908607047C046041002400000FFFF18
:10121000040FFF1F08ED00E0B0B5FFF7F7FC012851
:1012200023D1FFF777FC114C2088401C208000F070
:1012300021FA00F069F920880D4941430125E9416F
:101240000C48814201D800F0F3F820880A49414354
:10125000E9410A48814201D800F040FA7D20C000EF
:101260002188814201D100202080B0BDE200002011
:10127000CDCCCCCC99999919295C8FC251B81E0557
:10128000F0B581B00E460446086880093C21014053
:10129000194840581F210140CC40184F3868A042DF
:1012A00006D22046FFF70EFC0546012D03D014E0C0
:1012B0000125012D11D1FFF7B9FBFFF7BFFB012875
:1012C000FBD13068FFF7D4FBFFF7F2FBFFF76AFBB7
:1012D0001028FBD17068FFF7DBFB3868A04203D908
:1012E0002046FFF7EFFB0546012D02D12046FFF710
:1012F00003FC284601B0F0BD5C180008C4000020C3
:1013000080B5FFF79BFB4142484180BDB0B5794CA9
:101310002168E948424A914202DBFFF79AFA02E06B
:101320000421FFF77FFA724D2878052824D8C0469B
:101330007844007940008744090F15021A026E486C
:1013400001686E480088FFF71BFF15E03648002152
:101350000160344801600FE03348002101602068DB
:10136000304908E02F4800210160206802E0206831
:101370002C4908602C4908602878032807D02948A0
:101380000068FFF79BFC28480068FFF79FFCB44803
:10139000017801290ED12978042909D0534A1278FD
:1013A000022A05D1491CCAB2032A00D90121297099
:1013B00000210170AC480178012915D14B490A7808
:1013C000002A08D0022A0DD1184A1278002A09D121
:1013D00003220A7006E001220A70144900220A70F2
:1013E00003212970002101709E480178012916D13E
:1013F0003E490A78002A08D0022A0ED10B4A1278F8
:10140000012A0AD103220A7007E001220A70074963
:101410000A70042129703C21216000210170B0BDB7
:1014200059020000D8000020DC000020CC00002081
:1014300010B58D480078012857D08A4800780128D7
:1014400053D08748007801284FD0E648007802281A
:101450004BD1864C2078012820D1E348007803281E
:1014600006D1E4480188264A914207D8114606E091
:10147000DE4908683C2806DC3C2005E06439018030
:10148000FFF732FA08E00A380860FEF77BFFDD4913
:10149000FEF76BFED649086000202070744C20785F
:1014A000012822D1D0480078032806D1D1480188EC
:1014B000144A914209D3114608E04B200201CB495E
:1014C0000868904206DB104605E064310180FFF7B2
:1014D0000BFA08E00A300860FEF754FFC949FEF72E
:1014E00044FEC34908600020207010BDE1000020C8
:1014F000E0000020F0000020C8000020C000002014
:101500008C0A000064190000F0B581B04E4E30889E
:10151000401C81B24D4FB94200D338464C4C217823
:10152000002900D108463080644D2878012855D123
:1015300061480821FFF76EF946490A8800280CD057
:10154000EF2040001346153B9BB283421CD8207805
:1015500000282DD1012020702AE0501C82B2BA420E
:1015600000D33846088080B27D210901884205D128
:10157000002020703C4901220A7028702078012840
:101580002CD10220207029E03348101880B2334A51
:1015900090420BD8207801280AD000203080304AB1
:1015A0000123137008802070287001E0002008805B
:1015B0003088C92812D32078022805D001280BD101
:1015C00000203080264A02E000203080254A012396
:1015D00013700880207000E00020287005200407A8
:1015E000334D2878012812D120212046FFF712F927
:1015F00000280CD117480188192902D8491C0180FC
:1016000005E01A4901220A70002101802970294D44
:101610002878012805D140212046FFF7FBF8002853
:1016200001D001B0F0BD0B480188192903D8491C2D
:10163000018001B0F0BD0E4901220A700021018035
:10164000297001B0F0BDC046EC0000200F2700005B
:10165000D5000020EE0000200BFEFFFFDA050000A1
:10166000D0000020CF000020D2000020D4000020B5
:10167000CE00002010B50520040720212046FFF7EA
:10168000C9F8414241410A48017040212046FFF714
:10169000C1F8414241410748017007480821FFF75E
:1016A000B9F8002800D010BD04480121017010BD18
:1016B000D3000020CD00002000040050D100002005
:1016C000FFF70EF8FEF7F8FFFFF7C4FBFFF792FBFA
:1016D000FFF71EFBFFF71AFEFCE70000F0B581B034
:1016E000404D287800280FD0032819D001285ED15A
:1016F0003D480078042834D13C480168434A91426F
:1017000057DC143101603EE0052004070421204627
:10171000FFF788F808212046FFF784F801B0F0BDF4
:10172000314E3078032832D1314F3868FEF74EFE03
:10173000314A324BFEF758FDFEF75CFE386000245C
:101740002146FEF711FE002831D134702C703C6028
:1017500026483C2101607D2040012649088001B0D7
:10176000F0BD234E346826492046FEF7EFFD0028E1
:1017700022D12046FEF72AFE1F4A234BFEF734FDF6
:10178000FEF738FE3060FFF7AFF801B0F0BD174844
:101790000168143901600ADC002131702970144A93
:1017A00011603C2101607D2040011249088001B098
:1017B000F0BD0220287009E002202870114920465F
:1017C000FEF796FCFEF7E9FD0849086005200407CE
:1017D00008212046FFF726F82046FFF73AF801B027
:1017E000F0BDC046E1000020E0000020F000002035
:1017F000C8000020C0000020FA7E6ABC749388BF35
:101800009A99193F000096447493883FAF040000F2
:101810002021020C01D010211046020A01D01046EE
:101820000839020901D01046091F820801D010466C
:10183000891E420801D0881E7047081A704702E0CE
:1018400008C8121F08C1002AFAD17047704700204B
:1018500001E001C1121F002AFBD170470000000007
:101860000000000000000000000000000000000078
:101870000000000000000000000000000100000067
:101880000200000003000000040000000600000049
:1018900007000000080000000900000000093D00EA
:1018A00000127A000024F4004086510100366E01D7
:1018B00000093D0000093D0000093D00E018000856
:1018C00000000020C80000003E180008A819000809
:1018D000C8000020300400004E180008000000007E
:1018E00000000000000000000000000000000000F8
:1018F00000000000000000000000000000000000E8
:1019000000000000000000000000000000000000D7
:1019100000000000000000000000000000000000C7
:1019200000000000000000000000000000000000B7
:1019300000000000000000000000000000000000A7
:101940000000000000000000000000000000000097
:101950000000000000000000000000000000000087
:101960000000000000000000000000000000000077
:101970000000000000000000000000000000000067
:101980000000000000000000000000000000000057
:101990000000000000000000000000000000000047
:0819A000A00F000000127A0004
:04000005080000C12E
:00000001FF
